{
  "events": [
    {
      "chain_id": 8453,
      "tx_hash": "0xa1ce456a1efec0d9b28713e821369d58a812d41f1c79e74f47b2cff03ed7ddd4",
      "block_number": 41073443,
      "event_type": "TransactionExecuted",
      "solver_address": "0x6bbbccabc08d73a087c8c33619b70217f0f3c838",
      "value_wei": "0",
      "gas_used": 700760,
      "gas_price_wei": "5209346",
      "data_json": "[\"0x1cc9a0755dd734c1ebfe98b68ece200037e363eb366d0dee04e420e2f23cc010\"]",
      "decoded_input": [
        {
          "actions": [
            {
              "logicVerifierInputs": [
                {
                  "tag": "0x0e0146f3d6b63ca98d0c38d12d0acad24e8198438d246486ae37bc8a088907ab",
                  "verifyingKey": "0x678b37ba70cfb1787c2436d7eb2ef3c588d1e1d6f30a7248e79436bd15f3fc11",
                  "appData": {
                    "resourcePayload": [],
                    "discoveryPayload": [],
                    "externalPayload": [
                      {
                        "deletionCriterion": 0,
                        "blob": "0x000000000000000000000000fee5b48919100c192e017992810c9539ebd002490000000000000000000000000000000000000000000000000000000000000060000000000000000000000000000000000000000000000000000000000000010000000000000000000000000000000000000000000000000000000000000000800000000000000000000000000000000000000000000000000000000000000001000000000000000000000000833589fcd6edb6e08f4c7c32d4f71b54bda029130000000000000000000000000000000000000000000000000000000000002710000000000000000000000000dda071e39ab81ce6a093a23c136e24374e94353e0000000000000000000000000000000000000000000000000000000000000000"
                      }
                    ],
                    "applicationPayload": []
                  },
                  "proof": "0x"
                },
                {
                  "tag": "0x72e64077241bdb4794db7a881df646c7fddd87e0314679047b5d59274d48a913",
                  "verifyingKey": "0x678b37ba70cfb1787c2436d7eb2ef3c588d1e1d6f30a7248e79436bd15f3fc11",
                  "appData": {
                    "resourcePayload": [
                      {
                        "deletionCriterion": 1,
                        "blob": "0x1901000000000000e12003c25a750fc9902d6ccf25255f132ecb006d607379c9d58500ac2e05f636f3ffb0b9cc3f49bb6bd7e2ba5d6f97b2b56aafa59d32e476980548f84b3d9285eefe4b3ed690bd7142a5bdaa8a62d035db08e2d8d9201bc79ef25608c8eeb5f93596537421454e25be44e92a6efc79d6bf3058793bad084fc47207875586f4175bad9381d94c1fd9e2135b565c482f3bd7ded2f7ef86d2b09238a195a3cb85ff121151607e4f1a4ce5f03ef6ca920978c955f9edb9a4162045fd8bb1605b8490cf5ad92b55ff4b6304ff8c66b500cf73192c6d24c4b01e1b65a87056029abb581701fc6e0b2b10e6fe7f03ade462418e062de460c6b97f45d0b9a86a0f92460aec76ddfcbbb32270d2327de1965f68064e808c35a6e2334eeeff9c1b485824f9e4a7227796210000000000000003cb0c79d3da58dd83c8ec43cd5e91f7a61416e3350a50bb40e0667bda8ad6f7310000"
                      }
                    ],
                    "discoveryPayload": [
                      {
                        "deletionCriterion": 1,
                        "blob": "0x1100000000000000a15ab76874567dee5fa12ac45e81c5ad66b748eebd5b046d7fec980ed8210000000000000002400c4b71a4869a4357111d483481ef9f6b0618aec8e97def8601be931ecc69350000"
                      }
                    ],
                    "externalPayload": [],
                    "applicationPayload": []
                  },
                  "proof": "0x"
                },
                {
                  "tag": "0x6475301400aa3ea096dca64649e6397a30ced8b302e6a3385ff544569e92e73d",
                  "verifyingKey": "0x678b37ba70cfb1787c2436d7eb2ef3c588d1e1d6f30a7248e79436bd15f3fc11",
                  "appData": {
                    "resourcePayload": [],
                    "discoveryPayload": [],
                    "externalPayload": [],
                    "applicationPayload": []
                  },
                  "proof": "0x"
                },
                {
                  "tag": "0x374b49327084e93e60a7391c30baa84d33c3c597e8b09eb080427e003ad0bdbf",
                  "verifyingKey": "0x83d603b23e090c1400b018adb61f516386e9f2d523f983c3c417ab49b2037585",
                  "appData": {
                    "resourcePayload": [],
                    "discoveryPayload": [],
                    "externalPayload": [],
                    "applicationPayload": []
                  },
                  "proof": "0x"
                }
              ],
              "complianceVerifierInputs": [
                {
                  "proof": "0x",
                  "instance": {
                    "consumed": {
                      "nullifier": "0x6475301400aa3ea096dca64649e6397a30ced8b302e6a3385ff544569e92e73d",
                      "logicRef": "0x678b37ba70cfb1787c2436d7eb2ef3c588d1e1d6f30a7248e79436bd15f3fc11",
                      "commitmentTreeRoot": "0xab72600948feae09ce284bdb3fb0474e756b1ada56c9ed2958ed953c874dde8d"
                    },
                    "created": {
                      "commitment": "0x0e0146f3d6b63ca98d0c38d12d0acad24e8198438d246486ae37bc8a088907ab",
                      "logicRef": "0x678b37ba70cfb1787c2436d7eb2ef3c588d1e1d6f30a7248e79436bd15f3fc11"
                    },
                    "unitDeltaX": "0x45250c2edee40e3d3ef7c1e22808c8bade2ad60573ab3e733b45c9b4cad403a0",
                    "unitDeltaY": "0xe4d73072b38a22ad29f8c0a3d958c201d90eecc67bf959dc0b5525e779b5d682"
                  }
                },
                {
                  "proof": "0x",
                  "instance": {
                    "consumed": {
                      "nullifier": "0x374b49327084e93e60a7391c30baa84d33c3c597e8b09eb080427e003ad0bdbf",
                      "logicRef": "0x83d603b23e090c1400b018adb61f516386e9f2d523f983c3c417ab49b2037585",
                      "commitmentTreeRoot": "0xcc1d2f838445db7aec431df9ee8a871f40e7aa5e064fc056633ef8c60fab7b06"
                    },
                    "created": {
                      "commitment": "0x72e64077241bdb4794db7a881df646c7fddd87e0314679047b5d59274d48a913",
                      "logicRef": "0x678b37ba70cfb1787c2436d7eb2ef3c588d1e1d6f30a7248e79436bd15f3fc11"
                    },
                    "unitDeltaX": "0x405af6fa0f1fb368c92efd895e117313b292fc3f6e22ca98ec7b78dee0f3a142",
                    "unitDeltaY": "0x9392970950e966e8906a2536585733f280f4ac8acf8a32c828a3ffb1c6be3ca0"
                  }
                }
              ]
            }
          ],
          "deltaProof": "0xd10bae04989c16fa2e6804e1fb0e44234c52ce5efe44bf55d8acae5093914dba510c1c7f5a92d95e2e0ad02a126c0c453476acc466e6e1491ba10285ee733fe71b",
          "aggregationProof": "0x73c457ba1b1b77a747607145a16c69101ed1ff64724e7f8d9e0f4eb3b60d14aee5d0c5871e64463259c5b5a0163cd16a3da1a1c34546866fb44732dd7e0146b1ff44f1582f9939cd3a4dd698c402d300ac1c611a391a043af44b514eb749cfae37b851c21cdc35cdc89f88dae197108b2f01652d648c68845287b2f43fb1fee19bcde0b3241a25ba05ff270762daa068cf0d37ca1f7d120f1cba2c6228f198d58005cbdc02367c3a32823d583ac7b13d64bcc8ed663cd044adb81c64a8abc5701afcaead23d211c29e5ae1f1d05c97830191ffeda40e9ec129b4335004f6bdcab7b27edc14751aebcedc4298adf0abc26db5a4ad83a4ce2fb7a585630fb4f82165a8978d"
        }
      ],
      "timestamp": 1768936233
    }
  ],
  "payloads": [
    {
      "chain_id": 8453,
      "tx_hash": "0xa1ce456a1efec0d9b28713e821369d58a812d41f1c79e74f47b2cff03ed7ddd4",
      "block_number": 41073443,
      "payload_type": "Resource",
      "payload_index": 0,
      "blob": "0x000000000000000000000000000000000000000000000000000000000000004000000000000000000000000000000000000000000000000000000000000000e000000000000000000000000000000000000000000000000000000000000000800000000000000000000000000000000000000000000000000000000000000001000000000000000000000000833589fcd6edb6e08f4c7c32d4f71b54bda029130000000000000000000000000000000000000000000000000000000000002710000000000000000000000000dda071e39ab81ce6a093a23c136e24374e94353e0000000000000000000000000000000000000000000000000000000000000000",
      "timestamp": 1768936233
    },
    {
      "chain_id": 8453,
      "tx_hash": "0xa1ce456a1efec0d9b28713e821369d58a812d41f1c79e74f47b2cff03ed7ddd4",
      "block_number": 41073443,
      "payload_type": "Discovery",
      "payload_index": 0,
      "blob": "0x6e382783b3101bde36300427b5e222e656964ab8d53a3229dad5b5524357c944",
      "timestamp": 1768936233
    }
  ],
  "privacy_stats": [
    {
      "chain_id": 8453,
      "block_number": 41073443,
      "root_hash": "0x0000000000000000000000000000000000000000000000000000000000000040",
      "timestamp": 1768936233,
      "estimated_pool_size": 0
    }
  ],
  "solvers": [
    {
      "chain_id": 8453,
      "address": "0x6bbbccabc08d73a087c8c33619b70217f0f3c838",
      "count": 1,
      "gas": "3650501302960",
      "val": "0",
      "timestamp": 1768936233
    }
  ],
  "assets": [],
  "daily_stats": [
    {
      "chain_id": 8453,
      "date": "2026-01-20",
      "count": 1,
      "volume": "0",
      "gas": 700760
    }
  ]
}