{
  "events": [
    {
      "chain_id": 8453,
      "tx_hash": "0xcfd57ed6170af200b1fd5136fe545bbc4836fbfe0d2b8e6ba26fd24817a16fab",
      "block_number": 41067375,
      "event_type": "TransactionExecuted",
      "solver_address": "0x6bbbccabc08d73a087c8c33619b70217f0f3c838",
      "value_wei": "0",
      "gas_used": 690778,
      "gas_price_wei": "9169256",
      "data_json": "[\"0x1cc9a0755dd734c1ebfe98b68ece200037e363eb366d0dee04e420e2f23cc010\"]",
      "decoded_input": [
        {
          "actions": [
            {
              "logicVerifierInputs": [
                {
                  "tag": "0xe98440de986216fd8f7ac2885770ed774d9cda8de47bd44bd11449e3ed0d9f84",
                  "verifyingKey": "0x678b37ba70cfb1787c2436d7eb2ef3c588d1e1d6f30a7248e79436bd15f3fc11",
                  "appData": {
                    "resourcePayload": [],
                    "discoveryPayload": [],
                    "externalPayload": [
                      {
                        "deletionCriterion": 0,
                        "blob": "0x000000000000000000000000fee5b48919100c192e017992810c9539ebd002490000000000000000000000000000000000000000000000000000000000000060000000000000000000000000000000000000000000000000000000000000010000000000000000000000000000000000000000000000000000000000000000800000000000000000000000000000000000000000000000000000000000000001000000000000000000000000833589fcd6edb6e08f4c7c32d4f71b54bda0291300000000000000000000000000000000000000000000000000000000000186a0000000000000000000000000ebbc136df778d0f4f93007ec6b02897ae508e7960000000000000000000000000000000000000000000000000000000000000000"
                      }
                    ],
                    "applicationPayload": []
                  },
                  "proof": "0x"
                },
                {
                  "tag": "0xb69fd635bb5b296c855ab94d696f5892b2d39c29b19dc04be990bc8f1a3acb5a",
                  "verifyingKey": "0x678b37ba70cfb1787c2436d7eb2ef3c588d1e1d6f30a7248e79436bd15f3fc11",
                  "appData": {
                    "resourcePayload": [
                      {
                        "deletionCriterion": 1,
                        "blob": "0x19010000000000006ce8526efe8891fc04161ca4df707d364bb5b403dd2ee8cd91a56ae41e8bb5bea2deddb84f69fd97a856707806432f3f138f57f2c318c22465798e170a5abe2edf1e8d7f3dd70561a78a8c70b06859012500a08948b8450d13e4e8b688c28178ca2f08b63569071c995c0df16f2c2911a40c8ea1c5fb87728977984af862d448dcb02790e249c29cdb32d1206d409ba80ace7a33aa6ac342eeeb28a04508bf1654e0650b39e86fd404e1626cec762c9b3f6602f14085a4f2f7400ce1d0a92b647327482e2fe11e7749f3bda713e83c5e7ea70d793097f19a2b7ab848025c30257f95872645e5a684872ed7c98a008811e180e67750b6fc32e1ef92fe822e5a63f87fc3791df2daf113be3564c6f93632f12bd3d670feabb47a81125c1ea455edcfd80a425e210000000000000003280e1675861a44e6d34460b186fd8ab5982c7f9b03580e834918362f87da2c1d0000"
                      }
                    ],
                    "discoveryPayload": [
                      {
                        "deletionCriterion": 1,
                        "blob": "0x110000000000000036c7f4cc5bb0935af2a0b4455546cb806513a7a20285a0d945b0c2839b210000000000000003e19c39318c0c173bd67c38b58e440ccb1e919d87616195c3577ddadc272b39890000"
                      }
                    ],
                    "externalPayload": [],
                    "applicationPayload": []
                  },
                  "proof": "0x"
                },
                {
                  "tag": "0xc525937ab956ed82d395ceded40994bc4ed7f241fe8ed57dc040b05d77fa212a",
                  "verifyingKey": "0x678b37ba70cfb1787c2436d7eb2ef3c588d1e1d6f30a7248e79436bd15f3fc11",
                  "appData": {
                    "resourcePayload": [],
                    "discoveryPayload": [],
                    "externalPayload": [],
                    "applicationPayload": []
                  },
                  "proof": "0x"
                },
                {
                  "tag": "0xca01460eff90d6787637f86d97ab3e0baacd52054c1ff818a935e621f6d03d81",
                  "verifyingKey": "0x83d603b23e090c1400b018adb61f516386e9f2d523f983c3c417ab49b2037585",
                  "appData": {
                    "resourcePayload": [],
                    "discoveryPayload": [],
                    "externalPayload": [],
                    "applicationPayload": []
                  },
                  "proof": "0x"
                }
              ],
              "complianceVerifierInputs": [
                {
                  "proof": "0x",
                  "instance": {
                    "consumed": {
                      "nullifier": "0xc525937ab956ed82d395ceded40994bc4ed7f241fe8ed57dc040b05d77fa212a",
                      "logicRef": "0x678b37ba70cfb1787c2436d7eb2ef3c588d1e1d6f30a7248e79436bd15f3fc11",
                      "commitmentTreeRoot": "0x4a6dbec5d4cd9ac3de8796af9a3d95b6e65abfae3ec47a43e9ff766742d50fc3"
                    },
                    "created": {
                      "commitment": "0xe98440de986216fd8f7ac2885770ed774d9cda8de47bd44bd11449e3ed0d9f84",
                      "logicRef": "0x678b37ba70cfb1787c2436d7eb2ef3c588d1e1d6f30a7248e79436bd15f3fc11"
                    },
                    "unitDeltaX": "0xc5f70650ddd0edd559392686f7c1021d452fac3469a9c5458f85b90a99056b89",
                    "unitDeltaY": "0x24326924d5a70056b1342e69b5d356fcbd0b4fed68a328465f95587adc3382ad"
                  }
                },
                {
                  "proof": "0x",
                  "instance": {
                    "consumed": {
                      "nullifier": "0xca01460eff90d6787637f86d97ab3e0baacd52054c1ff818a935e621f6d03d81",
                      "logicRef": "0x83d603b23e090c1400b018adb61f516386e9f2d523f983c3c417ab49b2037585",
                      "commitmentTreeRoot": "0xcc1d2f838445db7aec431df9ee8a871f40e7aa5e064fc056633ef8c60fab7b06"
                    },
                    "created": {
                      "commitment": "0xb69fd635bb5b296c855ab94d696f5892b2d39c29b19dc04be990bc8f1a3acb5a",
                      "logicRef": "0x678b37ba70cfb1787c2436d7eb2ef3c588d1e1d6f30a7248e79436bd15f3fc11"
                    },
                    "unitDeltaX": "0x27299e7478f7330a9c77c3487254720169a676d8a114a2b6f74e301062db419b",
                    "unitDeltaY": "0x3dbe7d1d586148d89f69e5856ef5d0c0b27e932aa43e11a10373f781a3a86714"
                  }
                }
              ]
            }
          ],
          "deltaProof": "0xe4b1ddb586da0ace9ef162baa2f5cdc2a6bf64134d157d23daefc7cf11912f4f660042dcab950d7caf0878a50298ff1bea9ce6fe5641044e9e536ec53dc2a2511b",
          "aggregationProof": "0x73c457ba087fff929b2cb99933385c3bb7f50a8dbf72c804d0b050f9c079eeb38864b1b80877bb275027ad49d1535aa5fd46489e284b6ebcf49e6a6862de32362ac13d2205709484d5007d340f3eef399b79c3910c6ed33527bdf8a653584f90ec4fd81909f46c554ed82a0fdcfdb7902331afea2bcd146213f2dafb9022169c971e0d0c26e43bd8827231403302116a5e9cb3014e5b8ef6ed56fcd4cd722136a220801a0271e83c42fc7b1aeb6587f4c7dec7d7fa6fc90eaa569259515ff20bc173635705f8ff36f884ac020bda0c452d12221477174d15376d792fefb3127d332267e00f23ad60fa0470fb52c6921e2b414c8226491e97957eac1f3e95757ff46089ca"
        }
      ],
      "timestamp": 1768924097
    }
  ],
  "payloads": [
    {
      "chain_id": 8453,
      "tx_hash": "0xcfd57ed6170af200b1fd5136fe545bbc4836fbfe0d2b8e6ba26fd24817a16fab",
      "block_number": 41067375,
      "payload_type": "Resource",
      "payload_index": 0,
      "blob": "0x000000000000000000000000000000000000000000000000000000000000004000000000000000000000000000000000000000000000000000000000000000e000000000000000000000000000000000000000000000000000000000000000800000000000000000000000000000000000000000000000000000000000000001000000000000000000000000833589fcd6edb6e08f4c7c32d4f71b54bda0291300000000000000000000000000000000000000000000000000000000000186a0000000000000000000000000ebbc136df778d0f4f93007ec6b02897ae508e7960000000000000000000000000000000000000000000000000000000000000000",
      "timestamp": 1768924097
    },
    {
      "chain_id": 8453,
      "tx_hash": "0xcfd57ed6170af200b1fd5136fe545bbc4836fbfe0d2b8e6ba26fd24817a16fab",
      "block_number": 41067375,
      "payload_type": "Discovery",
      "payload_index": 0,
      "blob": "0x1d8472d93e7f2cbd6c8b8423b36e595b862f8654a4f35694c28878423c3659bb",
      "timestamp": 1768924097
    }
  ],
  "privacy_stats": [
    {
      "chain_id": 8453,
      "block_number": 41067375,
      "root_hash": "0x0000000000000000000000000000000000000000000000000000000000000040",
      "timestamp": 1768924097,
      "estimated_pool_size": 0
    }
  ],
  "solvers": [
    {
      "chain_id": 8453,
      "address": "0x6bbbccabc08d73a087c8c33619b70217f0f3c838",
      "count": 1,
      "gas": "6333920321168",
      "val": "0",
      "timestamp": 1768924097
    }
  ],
  "assets": [],
  "daily_stats": [
    {
      "chain_id": 8453,
      "date": "2026-01-20",
      "count": 1,
      "volume": "0",
      "gas": 690778
    }
  ]
}